:020000040800F2
:10000000F81600204102000827290008F1270008FF
:100010002529000875150008472D0008000000007C
:10002000000000000000000000000000A90100081E
:100030007715000800000000ED010008A12A000863
:100040005B0200085B0200085B0200085B0200081C
:100050005B0200085B0200085B0200085B0200080C
:100060005B0200085B0200085B0200085B020008FC
:100070005B0200085B0200085B0200085B020008EC
:100080005B0200085B0200085B0200085B020008DC
:100090005B0200085B0200085B0200085B020008CC
:1000A0005B020008492B00085B0200085B020008A5
:1000B0005B0200085B0200085B0200085B020008AC
:1000C0005B0200085B0200085B0200085B0200089C
:1000D0005B0200085B0200085B0200085B0200088C
:1000E0005B0200085B0200085B02000800F002F8F7
:1000F00000F04AF80AA090E8000C82448344AAF178
:100100000107DA4501D100F03FF8AFF2090EBAE875
:100110000F0013F0010F18BFFB1A43F0010318473B
:10012000403F0000603F0000103A24BF78C878C10B
:10013000FAD8520724BF30C830C144BF04680C60ED
:10014000704700000023002400250026103A28BF35
:1001500078C1FBD8520728BF30C148BF0B60704739
:10016000662903F0C986752900F0A4800020704735
:100170001FB500F069FC04000020002103F094FB8F
:10018000E0601FBD10B510BD00F05AFD1146FFF72D
:10019000EFFF02F005FE00F078FD03B4FFF7F2FF79
:1001A00003BC00F0BBFD0000224B19680868B0E8F2
:1001B000F00F80F30988BFF36F8F4FF0000080F3DA
:1001C00011884EF00D0E70470000000006480068D0
:1001D000006880F3088862B661B6BFF34F8FBFF343
:1001E0006F8F00DF00BF00BF08ED00E0EFF3098074
:1001F000BFF36F8F0F4B1A6820E9F00F106008B53E
:100200004FF0500080F31188BFF34F8FBFF36F8F13
:1002100003F0A8F94FF0000080F31188BDE8084012
:1002200019680868B0E8F00F80F30988BFF36F8F92
:10023000704700BF28000020EFF3058070470000E2
:100240000948804709480047FEE7FEE7FEE7FEE76A
:10025000FEE7FEE7FEE7FEE7FEE7FEE704480549A6
:10026000054A064B70470000452B0008ED000008CA
:10027000F8100020F8160020F8120020F8120020D4
:100280000FB41CB50C0007AA009001D02044401EFA
:10029000074B7B4469460190069800F0B4FB002CA4
:1002A00003D06946002000F0C1FB1CBC5DF814FBC4
:1002B000A10700002DE9F0410646002410687529C9
:1002C000314616A510D0AFF30080002802DA404274
:1002D00013A507E031688A0701D512A502E0490796
:1002E00004D511A5012401E0AFF3008000210A220A
:1002F00006F1240709E0B0FBF2FCB0FBF2F302FBCD
:100300001C00303078541846491C0028F3D123468D
:100310002A463046BDE8F04100F00AB9000000006E
:100320002D0000002B000000200000002DE9F04708
:100330004FF0000A89460446C0F820A02046E16834
:100340008847002876D0252806D0D4E90121904797
:10035000206A401C2062F1E7E168204600258847BA
:10036000C4F81CA006460027C4F818A02A2E09D0FD
:10037000304602F00DFD38B304EB8708303EC8F874
:10038000186019E059F8041B204604EB87029161BC
:10039000E1688847012F064618D1E069002820DA75
:1003A00025F020051DE0D8F8180000EB800006EBD2
:1003B00040003038C8F818002046E16888470646F3
:1003C00002F0E6FC0028EED1012F0AD02E2E08D133
:1003D0002046E16888477F1C0646022F45F020052D
:1003E000C4DBA069002803DA404245F00105A061A2
:1003F000E80701D025F01005B6B1A6F14100192893
:1004000002D8203645F400654A463146204625602C
:100410004D46FFF7A5FE58B1012806D0ED1D25F089
:10042000070000F1080989E704E005F1040985E700
:1004300030468AE7206ABDE8F08710B5431C02E029
:1004400010F8011B71B18107FAD14FF0013202C8D7
:100450008C1A8C4314EAC211F9D0C01A0A0603D0D0
:10046000C01E10BDC01A10BD0A0401D0801E10BDF0
:100470000902FCD0401E10BD10B5203AC0F00B8020
:10048000B1E81850203AA0E81850B1E81850A0E898
:100490001850BFF4F5AF5FEA027C24BFB1E81850F2
:1004A000A0E8185044BF18C918C0BDE810405FEA62
:1004B000827C24BF51F8043B40F8043B08BF7047DE
:1004C000D20728BF31F8023B48BF11F8012B28BFE3
:1004D00020F8023B48BF00F8012B70474FF00002A4
:1004E00000B5134694469646203922BFA0E80C502A
:1004F000A0E80C50B1F12001BFF4F7AF090728BF05
:10050000A0E80C5048BF0CC05DF804EB890028BF80
:1005100040F8042B08BF704748BF20F8022B11F0A9
:10052000804F18BF00F8012B704770477047704725
:100530002DE9F0470D4699469246044600F12408FD
:100540000168880604D5E06921F01001216000E00F
:100550000120A84201DD471B00E00027A1697A19AC
:1005600002EB0900081AA0612078C00602D42046D8
:10057000AFF30080002608E0D4E901211AF8060054
:100580009047206A401C761C20624E45F4DB2078A0
:10059000C0060AD52046AFF3008006E0D4E9012169
:1005A00030209047206A401C2062381EA7F10107C6
:1005B000F4DC07E0D4E9012118F805009047206A2F
:1005C000401C2062281EA5F10105F3DC2046AFF394
:1005D00000802078000602D50220BDE8F0870120C7
:1005E000FBE770472DE9FF4F0C461E464FF0FF37E3
:1005F0008BB0D2E90001DDF860800A908A46C1F331
:100600000A5505B93D46002108464FF00000BAF1F1
:10061000000F00F4400005DA00EB80004FF44001C9
:1006200001EA50004FEA9059B9F1010F00DDB946D7
:100630000A9850EA4A000ED044F61050A5F2FF3551
:1006400045432F14B8F1000F1ED07542291E1EDD40
:10065000C9F100021CE0B8F1010F4FF0000001D019
:10066000302103E0F24305E02154401CB042FBDBA3
:1006700030460022002121540B99C1F80880C1E9BD
:1006800000200FB0BDE8F08FBD1B6D1CDEE74A46B1
:1006900000DA694206A800F061FA06AB93E80700A9
:1006A00003AB83E8070050460A9900F03EFB8DE853
:1006B0000700A0F500501F3800900398002D09DDB9
:1006C00042F21F014A46084403A90390684600F01D
:1006D0009DFD08E0A0F500504A461F3803A903908D
:1006E000684600F0A7FD8DE807000004000C03D069
:1006F0004FF0FF30410800E01046B8F1000F03D082
:100700000022009215461EE0751E05D400F0A0F9E7
:10071000303262556D1EF9D5B3460122084302D02E
:1007200000227F1C04E02078302801D100227F1EA7
:10073000002A099786D01DE0112D07DA00F088F90C
:10074000303262556D1C50EA0102F5D1084302D0E7
:100750000098C8B10EE00021681E05E0235C625CD1
:1007600063542254401E491C8142F7DBAB46A81B50
:10077000401E0990002004F80B000B98099AC0F85D
:100780000880C0E9002B7CE711264FF0000859E7EC
:100790002DE9F04F88460446D21D22F0070191B0A2
:1007A000D1E90001CDE90A0102F0CEFA02460B9828
:1007B000C00F01D02D2007E02068810701D52B2034
:1007C00002E0202101EAC000032A099001D0072A93
:1007D00005DB03464146204600F080F90BE1207816
:1007E000800601D5E06900E00620B8F1650F81467A
:1007F00006D0B8F1660F18D0B8F1670F70D131E0AC
:100800000020B9F1110F009001DB112301E009F183
:1008100001030AAA01A90CA8FFF7E4FEDDE90C70A8
:10082000002609F10105834647E001204B46009070
:100830004FF000470AAA01A90CA8FFF7D3FEDDE993
:100840000DB00C995D46002610B909F101000D1894
:10085000B9EB050003D4C0F1FF3609F10105A5EBA2
:1008600009002BE0B9F1010F01DA4FF00109002076
:10087000B9F1110F0090484601DD112300E0034655
:100880000AAA01A90CA8FFF7ADFEDDE90C704D46E0
:1008900000268346207800070AD4AB4500DA5D467F
:1008A00001A8012D04DD411911F8011C302907D0E0
:1008B0004F4502DA17F1040F04DA012082460FE0F7
:1008C0006D1EEEE7002F02DCED1B3E4403E0781CBA
:1008D000A84200DD7D1CB81B00F1010A4FF0004763
:1008E0002078000703D4AA4501DB4FF0FF3A00212E
:1008F000B7F1004F0DF143088DF8431024D00220CA
:100900002B23002F01DA7F422D230A21021EA0F1A2
:10091000010000DC5FB197FBF1FC97FBF1F201FBFA
:100920001C7C17460CF1300C08F801CDEEE7A8F15D
:10093000010003702188090501D5452100E06521EA
:10094000A0F1010800F8011C09980FA9A1EB080704
:10095000FF1D00B10120411901EBEA70A169384483
:10096000081A401EA0612078C00602D42046AFF3CA
:100970000080099828B1D4E901219047206A401CE1
:1009800020622078C00622D52046AFF300801EE00A
:10099000002E04DBB34502DD01A8805D00E03020BD
:1009A000D4E901219047206A401C2062761CAAF1FC
:1009B00001005FEA000A0AD100F046F8C068016849
:1009C000405CD4E901219047206A401C2062281E27
:1009D000A5F10105DCDC07E0D4E9012118F8010BE1
:1009E0009047206A401C2062381EA7F10107F3DC03
:1009F0002046AFF30080032011B043E601694A1C92
:100A000002610878704700B58FB0CDE9013100214F
:100A1000059105497944CDE9031011466846FFF771
:100A200085FC0FB000BD0000E5FFFFFF0A6802F87B
:100A3000010B0A607047D1E900239A4202D2531C8D
:100A40000B6010707047000000487047B410002021
:100A500030B5B0F10A024FEA900E71F100034EEA90
:100A6000817EB0EB0E0061EB91014FEA101E4EEA61
:100A7000017E10EB0E0041EB11114FEA102E4EEAF1
:100A8000016E10EB0E0041EB11214FEA104E4EEAC1
:100A9000014E10EB0E0041EB1141401841F10001F5
:100AA0004FEAD00040EA41704FEAD10110EB8005D7
:100AB0004FEA810444EA907444EB01046D1944EB5D
:100AC0000404521BA3414FF0000348BF0A3200D573
:100AD00030BD401C41F1000130BD00002DE9F04166
:100AE0001F46044603260168072A01F4006004DB60
:100AF00008B116A505E016A503E008B115A500E0AC
:100B000015A521F010002060A069C01EA0610FB1E2
:100B1000401EA0612046AFF300804FB1D4E901210F
:100B200038469047206A401C2062C01C206206E0C4
:100B3000206AFAE7D4E9012115F8010B9047761EE7
:100B4000F8D22046AFF30080BDE8F0814E414E0060
:100B50006E616E00494E4600696E66002DE9F047F1
:100B6000814616468AB0334878440DC88DE80D009A
:100B700030487844801C03AC0DC884E80D0041F671
:100B80009B300844372190FBF1F290FBF1F5A5F181
:100B9000800501FB12041B3C02D56442012000E0E9
:100BA0000020DFF890A080460027FA44AAF1BE0A90
:100BB0000DE0E00709D03246684607EB47010AEB33
:100BC000810100F037FB8DE8070064107F1C002CCA
:100BD000EFD1184F7F44AC3F18E0E80714D007EB83
:100BE00004100DF1180A90E80E008AE80E00C068A3
:100BF000F04201D198190890324606A903A800F0E6
:100C000019FB03AB83E807006D10641C002DE4D1D1
:100C100032466946B8F1000F03A802D000F0F6FA98
:100C200001E000F007FBC9E90001C9F808200AB09B
:100C3000BDE8F087B83400000048704794100020E9
:100C40007546FFF7F9FFAE4605006946534620F0AA
:100C50000700854618B020B5FFF700FBBDE820402F
:100C60004FF000064FF000074FF000084FF0000B68
:100C700021F00701AC46ACE8C009ACE8C009ACE81B
:100C8000C009ACE8C0098D46704710B50446AFF303
:100C900000802046BDE81040FFF77FBA4FF0013CCE
:100CA00050F8042B51F8043B9A4221D1A2EB0C03DB
:100CB000934313EACC1317D150F8042B51F8043B9B
:100CC0009A4215D1A2EB0C03934313EACC130BD138
:100CD00050F8042B51F8043B9A4209D1A2EB0C03C3
:100CE000934313EACC13DBD04FF00000704700BFF2
:100CF000D01A01BAB1FA81F101F0180122FA01F01B
:100D0000CB40C1F12001DBB2C0B2C01A2CFA01F312
:100D1000D11A914311EAC311E6D170470149182055
:100D2000ABBEFEE72600020070475FEA400C08BF3A
:100D300091F0000F4FEA8C234FEAC12243EA515150
:100D40004FEA1C5018BF00F5F0404FEA300018BFC2
:100D500041F000415FEA6C5C00F02980BCF1FF3F8C
:100D600008BF40F080407047130C06BF12044FF0DC
:100D7000100C4FF0000C130E04BF12020CF1080C03
:100D8000130F04BF12010CF1040C930F04BF920067
:100D90000CF1020CD30F04BF52000CF1010C1146F0
:100DA0004FF00002A0F11F00A0EB0C00704711F003
:100DB000004F08BF704731F000413FF4D5AF0B0C36
:100DC00006BF09044FF0100C4FF0000C0B0E04BFCF
:100DD00009020CF1080C0B0F04BF09010CF1040C03
:100DE0008B0F04BF89000CF1020CCB0F04BF49002C
:100DF0000CF1010CCCF12003A0EB0C0022FA03F360
:100E000002FA0CF241EA030100F10100704720F000
:100E10007F4C80EA030023F07F47ACEB070303F528
:100E20007C5300F0004003F1FF032DE980494FEAB5
:100E3000154B09B44FEA144325EA0B4E24EA034844
:100E40000FF2042606EB132749083E785FEA3202C8
:100E500003FB0667C7F5000707FB06F64FEA5437A2
:100E60004FEAD64606F1020607FB066CCCF1005CA1
:100E70004FEA1C472CEA074C07FB06F40CFB06F56F
:100E800004EB15464FEA961634BF00204FF00040A1
:100E90004FEAD13706FB07FC4FEA1C4C0CFB0BF763
:100EA000D21B03FB0CF761EB07010CFB0EF7B0EB59
:100EB000074072EB17420CFB08F734BFA2EB074266
:100EC000B2EB074261EB17414FEA0C444FEA91073E
:100ED00006FB07FC4FEA1C4C0CFB0BF7B0EBC740C2
:100EE00072EB573203FB0CF734BFA2EBC742B2EBF5
:100EF000C74261EB57310CFB0EF7B0EBC70072EB4A
:100F000057720CFB08F734BFA2EBC702B2EBC70263
:100F100061EB5771039F4FEA816141EA921104EB43
:100F2000CC044FEAD1374FEA826206FB07FC42EA63
:100F300090124FEA80604FEA1C4C0CFB0BF7D21B5F
:100F400003FB0CF761EB07010CFB0EF7B0EB07405E
:100F500072EB17420CFB08F734BFA2EB0742B2EB6F
:100F6000074261EB17414FEA8C554FEA910704EBBA
:100F70009C2406FB07FC4FEA1C4C0CFB0BF7B0EB68
:100F8000C74072EB573203FB0CF734BFA2EBC742EA
:100F9000B2EBC74261EB57310CFB0EF7B0EBC70069
:100FA00072EB57720CFB08F734BFA2EBC702B2EB2F
:100FB000C70261EB577115EB4C254FEA816141EA9D
:100FC00092114FEA82624FEAD13742EA901206FB51
:100FD00007FC44F100044FEA80604FEA1C4C0CFB14
:100FE0000BF7D21B03FB0CF761EB07010CFB0EF7B1
:100FF000B0EB074072EB17420CFB08F734BFA2EBD3
:101000000742B2EB074261EB174115EB1C154FEAA3
:10101000813141EA92414FEA823242EA90424FEAFC
:1010200080304FEA0C7644F1000448EA03434EEA6C
:101030000B484FF0000EB2EB080C71EB030724BF16
:10104000624639464EEB0E0E4FF0000B001852412F
:1010500049414BEB0B0BB2EB080C71EB03077BF137
:10106000000B24BF624639464EEB0E0E4FF0000BCC
:101070000018524149414BEB0B0BB2EB080C71EBE2
:1010800003077BF1000B24BF624639464EEB0E0E80
:1010900051EA020718BF46F0010616EB0E7655F12D
:1010A000000254F1000103D5BDE88901BDE80088C4
:1010B000BDE88901BDE80048B619524141EB010184
:1010C000A3F10103704780807F7E7D7C7B7A7978F5
:1010D000777676757473727171706F6E6E6D6C6CFD
:1010E0006B6A6A696868676666656464636362619F
:1010F0006160605F5F5E5E5D5D5C5C5B5B5A5A5920
:10110000595858575756565555555454535352528B
:101110005251515050504F4F4F4E4E4D4D4D4C4CE3
:101120004C4B4B4B4A4A4A4949494848484747472C
:101130004746464645454544444444434343434269
:10114000424242414141002B26D4770021D01CB5B8
:101150004FEA370703B44FF010004FF010014FF083
:1011600000000FBCBDE810400BF1010BBBF1010FFB
:1011700008BF5FEA170722BF12F1010211F1010156
:101180004FF0004143F1000300F0004043EA00004B
:101190007047F9D35708DAE746EA064613F1400FDD
:1011A0004FEA16461FDD13F1200FDFBF16430A4634
:1011B000002120335B42C8D0C3F1200746EA06462F
:1011C00002FA07F74FEA164646EA0706C3F1200778
:1011D00022FA03F201FA07F721FA03F14FF00003B4
:1011E00042EA0702B1E746EA020646EA06464FEA45
:1011F000164646EA0106BCBF46EA0646360C4FF0E4
:1012000000034FF000024FF000019EE72DE9C048B7
:10121000934630B491E8380007C831EA400C48BF23
:1012200034EA430C03D5FFF7F2FDFFF78CFFF0BC67
:10123000BDE800882DE9C048934630B491E83800F5
:1012400007C810F0804F08BF13F0804F03D100F0A3
:1012500005F8FFF778FFF0BCBDE8008820F07F4775
:1012600080EA030023F07F4C07EB0C03A3F57C53CB
:1012700000F00040A3F1FE0392F0000F00F0B380F5
:1012800095F0000F00F077802DE901494FEA1140F9
:101290004FEA144621EA004800FB06FC24EA064710
:1012A00008FB06F607FB08F800FB07F718EB0648F3
:1012B0004CEB164C4FEA124B18EB07484FEA154619
:1012C0004CEB174022EA0B4E0BFB06FC25EA0647C7
:1012D0000EFB06F607FB0EFE0BFB07F71EEB064E9A
:1012E0004CEB164C4FF000061EEB074E4CEB174B29
:1012F00018EB0B0840F1000018EB0E0B58EB000840
:1013000040F100008F1A4FF000013CBFC943661B3B
:1013100014BFB5EB040C00213CBFC943F61B4FEAD8
:1013200017444EEA8E0E27EA04454FEA1C4704FB99
:1013300007622CEA074C05FB07F70CFB05F604FBDC
:101340000CFC16EB074642EB174216EB0C4642EB41
:101350001C421BEB060658EB0202414146EA9E0680
:1013600001D5BDE80189B619524141EB0101A3F154
:101370000103BDE801894FEA14454FEA114724EA09
:10138000054621EA074C05FB07F406FB07F70CFBB3
:1013900006F105FB0CFC11EB074144EB17444FEA47
:1013A000124711EB0C4144EB1C4422EA074C05FBAD
:1013B00007F206FB07F70CFB06F605FB0CFC16EB29
:1013C000074642EB174216EB0C4642EB1C456A18E7
:1013D00054F1000148BF7047B619524141EB010179
:1013E000A3F10103704795F0000F37D04FEA114287
:1013F0004FEA144721EA024624EA074C02FB07F1B0
:1014000006FB07F70CFB06F402FB0CFC14EB07448D
:1014100041EB17414FEA154714EB0C4441EB1C41DB
:1014200025EA074C02FB07F506FB07F70CFB06F65F
:1014300002FB0CFC16EB074645EB174516EB0C467A
:1014400045EB1C42121951F1000148BF7047B61913
:10145000524141EB0101A3F1010370474FEA1445EA
:101460004FEA114724EA054621EA074C05FB07F13C
:1014700006FB07F70CFB06F24FF0000605FB0CFC21
:1014800012EB074241EB174112EB0C4251EB1C41AE
:1014900048BF7047921841EB0101A3F10103704767
:1014A00070B5044600688168C943C90717D18168CF
:1014B00021F00101816000F0BFFB05460AE000BF9A
:1014C00000F0BAFB401B022804D920688068C043A2
:1014D000C00706D020688068C043C007F0D0002055
:1014E00070BDA06A40F01000A062E06A40F0010008
:1014F000E062012070BD0000F8B5002604460096A9
:1015000000688168C943C9072DD0816841F0010195
:101510008160164816490068B0FBF1F000E0401EFB
:1015200000900028FBD100F087FB054616E000BFC5
:1015300000F082FB401B022810D920688068C0435D
:10154000C0070BD0A06A40F01000A062E06A40F033
:101550000100E06284F824600120F8BD2068806802
:10156000C043C007E4D10020F8BD000024000020E3
:1015700040420F00FEE7704730B590F82420012A62
:101580001ED0012280F824200A7A012A02685368BA
:1015900018D023F040035360D1E900231A430368B5
:1015A0005C680A4D2C4022435A600368CA685A623C
:1015B000026809699162002180F82410084630BD54
:1015C000022030BD43F04003E5E70000E0FD3FFFAF
:1015D000F8B50024009490F824202546012A12D062
:1015E000012280F824204A681F23072A0DD20668AA
:1015F000776B521E02EB820293409F430B6893402D
:101600001F43776319E00220F8BD06680D2A0AD24D
:10161000376BD21F02EB820293409F430B689340CB
:101620001F43376309E0F76A0D3A02EB82029340E9
:101630009F430B6893401F43F7620A6807230668BD
:101640000A2A0AD3F7680A3A02EB420293409F4300
:101650008B6893401F43F76008E0376902EB420252
:1016600093409F438B6893401F4337610A68102A59
:1016700001D0112A20D1124B02689A4217D19368E7
:101680001B0219D4936843F400039360096810297E
:1016900012D10C490C4A0968B1FBF2F101EB81014E
:1016A000490000E0491E00910029FBD104E0816A55
:1016B00041F020018162012480F824502046F8BDC9
:1016C000002401402400002040420F000068C06C4C
:1016D000704700002DE9F0414FF0000704003D463F
:1016E0007ED0A06A002628B9E66284F824602046ED
:1016F00000F07EF82046FFF7D3FEA16AC90600D4A9
:1017000020B1A06A40F01000A06269E0A16A21F453
:10171000885141F00201A1626268E169237B0A43BA
:1017200047EA43010A43A1684FF48077B94209D0E0
:10173000012907D05FF0000194F814C0BCF1010F3B
:1017400002D00AE03946F7E7F3B1A36A43F0200379
:10175000A362E36A43F00103E3622368D3F804C0A1
:101760002CF4694C4CEA010CC3F804C021688B6866
:10177000DFF870C003EA0C0313438B60A168B94221
:101780000BD0012909D00CE0DFF85CC0A3690CEB99
:1017900043330B4343F40061DFE7218A0D05A5F5D0
:1017A00080152168CB6A23F470032B43CB62216838
:1017B00089680E4B1940914208D1E662A16A21F076
:1017C000020141F00101A162BDE8F081A06A20F0B0
:1017D000020040F01000A062E06A40F00100E06208
:1017E0000120F1E7FDF7E1FF00E0FFFFFE0E1FFF24
:1017F00000B585B00021009101910291039100682C
:101800000E49884218D10E48816941F40071816106
:10181000816901F400710491816941F004018161E1
:101820008069694600F004000490012000900320C4
:101830000190044800F006F905B000BD0024014005
:1018400000100240000801402DE9F84300270D4632
:101850000446009700F0F0F9804620688168C905C9
:1018600008D5A06A40F02000A06284F8247001200E
:10187000BDE8F8834168C90503D4C06A10F4700F4D
:101880002AD0022000F0A2FA3B490968B1FBF0F629
:101890002068036939490B424FEA61014FEAA112FE
:1018A0001FD1C3684FEA611C13EA0C0F19D10369F9
:1018B0000B4225D1C068104222D1142023E0681CBD
:1018C0000AD02DB100F0B8F9A0EB0800A84203D966
:1018D00020680068800725D5206800688007EED55D
:1018E0002DE003690B4202D1C168114206D00269A2
:1018F00023490A4206D1C068084203D1542002E0BD
:10190000292000E0FC204643009816E0681C11D016
:101910002DB100F091F9A0EB0800A8420AD9009877
:10192000B04207D2A06A40F00400A06284F824709C
:1019300003209DE70098401C0090B042E6D3216848
:101940006FF012000860A06A40F40070A062206886
:101950008068C0F3424007280CD1207B50B9A06AB0
:1019600020F48070A062A06AC00403D4A06A40F092
:101970000100A06200207BE724000020244992247B
:101980004992240070B5044690F8240001280DD037
:10199000012084F824002046FFF7AEFD02004FF03E
:1019A000000005D084F82400104670BD022070BDF0
:1019B000A16A40F20123994341F48071A1621F4D55
:1019C00023681F49AB4218D10E6816F4702F14D04B
:1019D000A66A46F48016A6620E68760505D5A66A44
:1019E00026F4005646F48056A662A66AF6040AD586
:1019F000E66A26F00606E66206E0A66A26F4801687
:101A0000A6625E68E9E7E06284F824006FF00200F5
:101A1000186020688368C3F34243072B05D1A842AE
:101A200008D1096811F4702F04D0816841F4801145
:101A30008160B9E7816841F4A001F9E7002801401D
:101A4000042401402DE9F84FDFF8B8910024A9F1F2
:101A5000040B23460F2709F1040AABF1040EC9E079
:101A60000125A5402A40AA427DD1674ED1F804C085
:101A7000ACEB0608B44532D014DCBCF1030F3AD00D
:101A800009DCBCF1000F2AD0BCF1010F1CD0BCF165
:101A9000020F31D11DE0BCF1110F17D0BCF1120FB4
:101AA0002AD119E0B8F5881F19D006DCB8F5803FB7
:101AB00015D0B8F5801F1FD111E0B8F5001F0ED06A
:101AC000B8F5041F18D10AE0CB6815E0CB681B1DE0
:101AD00012E0CB6808330FE0CB680C330CE08B6866
:101AE0002BB1012B4FF0080303D0456104E0042320
:101AF00002E0056100E00023FF2A01D8064601E06C
:101B000000F104064FEA840501D9A5F12005D6F8B5
:101B1000008007FA05FC28EA0C0803FA05F548EAF4
:101B20000508C6F800804D68ED0062D5374DAE69F6
:101B300046F00106AE61AD6924F0030605F001052B
:101B40000095334D06EB050CDCF80850A607360F60
:101B500007FA06F825EA0805DFF8B880404503D102
:101B60004FF0000817E044E0DFF8AC80404502D1B8
:101B70004FF001080FE0DFF8A480404502D14FF09C
:101B8000020808E0DFF89880404502D14FF00308D2
:101B900001E04FF0040808FA06F848EA0508CCF816
:101BA00008804D68D9F80060ED024D4601D5164316
:101BB00000E096432E604D68DAF80060AD025546AD
:101BC00001D5164300E096432E604D68DBF80060B7
:101BD000AD035D4601D5164300E096432E604D6887
:101BE000DEF80060ED03754601D5164300E096432C
:101BF0002E60641C0D682A46E5407FF431AFBDE8D5
:101C0000F88F00000804014000001110001002408D
:101C10000000014000080140000C0140001001409C
:101C2000001401408068084000D0012070470AB1CC
:101C3000016170470904FBE70148806870470000B4
:101C400018000020024881680278114481607047C2
:101C500018000020074810B5016841F0100101602C
:101C6000032000F0A1F80F2000F006F800F04AF879
:101C7000002010BD0020024030B505461C4887B04A
:101C8000816941F400618161806906A900F4006006
:101C9000009001A800F0F8F900F026FA1549164A5C
:101CA000B0FBF1F11548491E0260416040F2E73295
:101CB0000021C0E903218160816100F0DDFB0400A7
:101CC00012D10E4800F006FC04000DD1192000F0DE
:101CD0003DF8102D07D200222946192000F044F8C3
:101CE0000748056000E0012407B0204630BD000031
:101CF0000010024040420F00002C01405C03002015
:101D00001C0000200F4808B5816941F00101816184
:101D1000816901F001010091C16941F08051C16107
:101D2000C069002200F0805000900F21901E00F04A
:101D30001BF80548416821F0E06141F00071416005
:101D400008BD00000010024000000140002809DB2F
:101D500000F01F02012191404009800000F1E020C5
:101D6000C0F8001170470000F0B40E4B1B680C4621
:101D7000C3F30223C3F10705042D00D90425191D5F
:101D8000072901D2002300E0DB1E012606FA05F137
:101D9000491E214099409E40761E16403143F0BCBA
:101DA00000F0E6BF0CED00E0064900F0070208680D
:101DB0004FF6FF03184040EA0220034A1043086030
:101DC000704700000CED00E00000FA0510B5014678
:101DD0000020234C012922D0022939D010291DD1FD
:101DE00061682268D20119D51E48C1F38342C90334
:101DF000805C0AD561681B4AC1F34041921E515C68
:101E0000194AB2FBF1F1484301E0184948436168BF
:101E1000490203D440000321B0FBF1F010BD226A57
:101E2000C2F30121012903D1920701D5C80310BDD6
:101E3000022905D1626A920702D549F6404010BDD9
:101E40000329FCD121688903F9D54FF2244010BD44
:101E500000F04AF96168C1F38131491C4900DBE7B0
:101E600000100240803F000800127A0000093D0087
:101E70002DE9F84305460078354CC00754D0E06999
:101E80000026C00008D4E06940F08050E061E069BD
:101E9000012600F0805000902E480168C90512D438
:101EA0000168804641F480710160FFF7C5FE074676
:101EB00005E000BFFFF7C0FEC01B642823D8D8F898
:101EC0000000C005F6D5206A10F4407021D0A98822
:101ED00001F4407181421CD0206A1F49012220F484
:101EE00040700A6000220A602062C00711D0FFF72C
:101EF000A3FE074641F2883808E000BFFFF79CFECA
:101F0000C11B414502D90320BDE8F883206A800740
:101F1000F4D5206A696820F44070084320621EB13D
:101F2000E06920F08050E0612878800705D560687E
:101F3000A96820F44040084360602878C00605D5B1
:101F40006068E96820F48000084360600020DBE7F7
:101F50000010024000700040400442422DE9F0476A
:101F60000F46050061D0434E306800F00700B842CC
:101F700009D2306820F0070038433060306800F044
:101F80000700B84251D128683B4C810712D5400761
:101F900003D5606840F4E06060602878000703D5EE
:101FA000606840F4605060606068A96820F0F000EC
:101FB000084360602878C00728D06868012810D0DE
:101FC0002168022810D0890700292EDA616821F0E3
:101FD000030101436160FFF72FFE804641F288391B
:101FE0000DE021688903EFE78901EDE7FFF724FEA3
:101FF000A0EB0801494502D90320BDE8F0876068DD
:10200000696800F00C00B0EB810FEFD1306800F090
:102010000700B8420BD9306820F007003843306021
:10202000306800F00700B84201D00120E5E72878C9
:10203000400705D56068E96820F4E0600843606007
:102040002878000706D56068296920F4605040EAC6
:10205000C100606000F058F86168084AC1F30311DC
:10206000515CC8400649086006480068FFF704FE56
:102070000020C2E70020024000100240903F00080C
:10208000240000201C0000200F2202600C4A53682C
:1020900003F003034360536803F0F0038360536865
:1020A00003F4E063C36052684FF4E06303EAD202D2
:1020B00002610448006800F00700086070470000F3
:1020C00000100240002002400448054900684968A9
:1020D000044AC1F30221515CC8407047240000202B
:1020E00000100240A03F0008044805490068496804
:1020F000044AC1F3C221515CC8407047240000204B
:1021000000100240A03F00080E4A51680E4801F03E
:102110000C03042B11D0082B0FD10C48C1F38343BF
:10212000C903C05C0AD55168084AC1F34041921EF8
:10213000515C054A5043B0FBF1F0704704494843F5
:10214000704700000010024000127A006E3F000845
:1021500000093D002DE9F84F040070D02078C04DF3
:10216000C00749D06868C0F38100012807D06868BB
:10217000C0F38100022809D16868C00306D5286829
:10218000800339D560680028E7D035E06068B0F595
:10219000803F0BD010B1B0F5A02F11D0286820F4EB
:1021A00080302860286820F4802002E0286840F40D
:1021B00080302860606890B1FFF73EFD06460AE077
:1021C000286840F480202860F0E700BFFFF734FD66
:1021D000801B642873D828688003F7D50CE0FFF7CC
:1021E0002BFD064605E000BFFFF726FD801B642897
:1021F000F0D828688003F7D420789A4E80074FF0F3
:1022000001094FF0000839D5686810F00C0F07D0AD
:102210006868C0F38100022809D16868C00306D449
:102220002868800714D52069012808D110E02069AA
:10223000B0B1C6F80090FFF7FFFC074605E00AE1E1
:10224000FFF7FAFCC01B0228C4D828688007F7D51E
:102250002868616920F0F80040EAC10028600DE0BC
:10226000C6F80080FFF7E8FC074604E0FFF7E4FC4F
:10227000C01B022823D828688007F7D420780007DD
:102280002CD57948A169D9B1C0F80090FFF7D4FCEA
:10229000074604E0FFF7D0FCC01B02280FD8686A8D
:1022A0008007F7D571484FF4FA510068B0FBF1F0A0
:1022B000009000BF0098411E0091FAD20EE080E02D
:1022C000C0F80080FFF7B8FC074604E0FFF7B4FC55
:1022D000C01B022875D8686A8007F7D420784007A9
:1022E00060D5E8690027C00008D4E86940F0805054
:1022F000E861E869012700F0805000905C480168BF
:10230000C90513D40168834641F480710160FFF769
:1023100093FC824606E000BFFFF78EFCA0EB0A00AC
:1023200064284ED8DBF80000C005F5D5E068012828
:102330000AD008B1052813D0286A20F001002862CD
:10234000286A20F0040002E0286A40F001002862B8
:10235000E06841F2883B98B1FFF76EFC82460BE0E3
:10236000286A40F004002862EEE700BFFFF764FC33
:10237000A0EB0A0159455AD8286A8007F6D50CE027
:10238000FFF75AFC824605E0FFF756FCA0EB0A0176
:1023900059454CD8286A8007F6D41FB1E86920F067
:1023A0008050E861E06988B36968C1F3810102295E
:1023B00044D00228C6F8608004D0FFF73DFC0446F4
:1023C00038E034E0FFF738FC074604E0FFF734FC60
:1023D000C01B02282BD828688001F7D4206AB0F5EA
:1023E000803F05D16868A16820F400300843686028
:1023F000D4E908010843696821F47411084368604E
:10240000C6F86090FFF718FC044606E025E000BF20
:10241000FFF712FC001B022809D828688001F7D5B5
:102420001BE000BFFFF708FC001B022802D90320B5
:10243000BDE8F88F28688001F4D40EE00128F7D0B9
:102440006868226A00F48031914204D1616A00F424
:102450007010884201D00120EAE70020E8E7000080
:10246000001002400000424280044242240000204A
:10247000007000407047704710B5040003D094F816
:102480003D0010B107E0012010BD002084F83C00A1
:10249000204600F01EF8022084F83D00211D20682F
:1024A00000F058FB012084F8460084F83E0084F8D0
:1024B0003F0084F8400084F8410084F8420084F82A
:1024C000430084F8440084F8450084F83D0000206F
:1024D00010BD704790F83D10012901D001207047D0
:1024E000022180F83D100168CA6842F00102CA600A
:1024F00000680B49884208D0B0F1804F05D00949E7
:10250000884202D00849884204D1816801F007015D
:10251000062903D0016841F00101016000207047E5
:10252000002C0140000400400008004070472DE9E5
:10253000F04104460068C66805694FF00007A90726
:1025400013D5B10711D5F91E01610120207720684C
:1025500080698007204602D0FFF7E8FF04E000F022
:102560007EF8204600F07CF82777680716D57007BC
:1025700014D521686FF004000861022020772068DC
:10258000806910F4407F204602D0FFF7CFFF04E0BF
:1025900000F065F8204600F063F82777280715D586
:1025A000300713D521686FF00800086104202077F8
:1025B0002068C0698007204602D0FFF7B7FF04E01B
:1025C00000F04DF8204600F04BF82777E80616D5C6
:1025D000F00614D521686FF01000086108202077FC
:1025E0002068C06910F4407F204602D0FFF79EFFAC
:1025F00004E000F034F8204600F032F82777E807CE
:1026000008D0F00706D021686FF00100086120466D
:1026100000F028F8280608D5300606D521686FF0A6
:10262000800008612046FFF725FF680608D5700680
:1026300006D521686FF040000861204600F01CF8C4
:10264000A8060AD5B00608D521686FF020000861F9
:102650002046BDE8F041FFF70EBFBDE8F0817047AE
:102660007047000000680349884201D1FFF7EABAC9
:1026700070470000002C0140704770B5040004D082
:1026800094F84100002510B106E0012070BD84F8E7
:102690004050204600F024F8242084F841002068AF
:1026A000C16821F40051C160204600F0B7FA2068EB
:1026B000016921F4904101612068416921F02A01FA
:1026C00041612068C16841F40051C1606564202007
:1026D00084F8410084F842006563002070BD00006A
:1026E00030B585B0002400940194029403940068EE
:1026F0001449884223D11448C16941F40031C161B1
:10270000C16901F400310491816941F004018161E2
:1027100080690E4D00F00400049004200090022017
:1027200001900320039069462846FFF78BF90820A3
:10273000CDE90004694628460294FFF783F905B005
:1027400030BD00000044004000100240000801407D
:102750002DE9F843044690F84100984616460D4688
:10276000202802D00220BDE8F88385B17EB1002088
:102770006064212084F84100FFF75EFAA684814658
:10278000E684A0682027B0F5805F02D003E0012036
:10279000E9E7206910B12E4600250EE000260CE086
:1027A0008021204600F096FAA8B9C6B116F8010BB0
:1027B00021684860E08C401EE084E08C4B464FF07E
:1027C0000002CDF800800028EAD14FF040012046F9
:1027D00000F080FA40B184F841700320C3E735F877
:1027E000020BC0F30800E3E784F841700020BAE769
:1027F000FEE7000030B589B018216846FDF76EFE8F
:1028000000241848069407940894154984600160D0
:1028100001250573047505614FF460214460C161B1
:10282000FEF758FF08B172B6FEE70F48CDE9000485
:10283000039404948DF8084069460A48FEF79CFE0C
:1028400008B172B6FEE7CDE9064506A90548089429
:10285000FEF7BEFE002801D072B6FEE709B030BD1B
:102860000024014090000020000280002DE9F0418A
:1028700086B000242848009401940294039481694E
:1028800041F010018161816901F0100104918169B9
:1028900041F020018161816901F020010491816989
:1028A00041F004018161816901F0040104918169B1
:1028B00041F0080181618069184F00F008004FF471
:1028C00060450490002229463846FFF7B0F9DFF84A
:1028D0005080002240214046FFF7A9F900950226CA
:1028E00001250396CDE9015469463846FFF7AAF859
:1028F0004020CDE90005CDE9024669464046FFF794
:10290000A1F868028DE8310069464046FFF79AF861
:1029100006B0BDE8F0810000001002400010014048
:10292000000C0140FEE7FEE70A48FFF72BF80A4CCF
:102930004FF0FF354FF4FA7629460648FEF784FF3C
:1029400018B90448FEF7C2FE6060304600F082FA13
:10295000F2E7000090000020000000200F4C104E15
:102960004FF480454FF0FF374FF4FA78207808B1E4
:10297000012200E0002229463046FFF758F920786E
:102980003B4610B1082207A101E0092208A10B482B
:10299000FFF7DEFE404600F05DFAE7E700000020AA
:1029A000001001404C4544204F4E0D0A000000002D
:1029B0004C4544204F46460D0A000000C000002050
:1029C0000125DFF84490114F00264FF400784FF4B2
:1029D000FA7A41464846FFF725F904000DD1012D4A
:1029E0000BD1FFF729F9801BC82806D9FFF724F976
:1029F0000646387830B1002038702546504600F041
:102A000029FAE6E70120F7E7000C0140000000206A
:102A100090B0174D174EDFF860804FF066374FF0DB
:102A2000FF394FF47A7A6868044601F0DDF8002235
:102A3000334600F081FF3A46434601F0E9F800F0E2
:102A400049FF01F0E3F9CDE9000123460BA2322151
:102A500002A8FDF715FC02A8FDF7EFFC82B24B4679
:102A600002A90E48FFF774FE504600F0F3F9DAE7CA
:102A70000000002000FEAF4066660A40414443204B
:102A800056616C75653A2025752C20566F6C746103
:102A900067653A20252E3266560D0A00C0000020D8
:102AA00010B5502080F31188BFF34F8FBFF36F8FA5
:102AB00000F032FE18B104494FF080500860002049
:102AC00080F3118810BD000004ED00E030B593B034
:102AD00028216846FDF702FD14210AA8FDF7FEFC37
:102AE000002501200F9510951195010412958DE890
:102AF000230004904FF4E010CDE90810022407945D
:102B00006846FFF727FB08B172B6FEE70AA90F2057
:102B100081E831004FF48060CDE90D0502210AA85B
:102B2000FFF71CFA08B172B6FEE74FF400401190AF
:102B30000F940FA8FFF79CF9002801D072B6FEE7AA
:102B400013B030BD704700000148FFF7F0BC000033
:102B50005C030020F0B50268194B1A4C1A4D4FF077
:102B60008047984205D0B84203D0A04201D0A84285
:102B700003D122F070064A683243984205D0B84229
:102B800003D0A04201D0A84203D122F44074CA6805
:102B900022434C6922F08002224302608A68C262AA
:102BA0000A688262984201D1096901630121416189
:102BB0000169C90703D0016921F001010161F0BD7C
:102BC000002C0140000400400008004001680C3166
:102BD00051E8002F22F4907241E80023002BF5D138
:102BE0000168143151E8002F22F0010241E800236E
:102BF000002BF5D1016B012909D101680C3151E895
:102C0000002F22F0100241E80023002BF5D12021F3
:102C100080F84210002101637047000070B504463F
:102C200000680169E26821F44051114301612169A2
:102C3000A0680843616908432168CA6841F20C63CF
:102C40009A430243CA6020684169A26921F4407135
:102C5000114341611E492068884202D1FFF744FABE
:102C600001E0FFF731FA00EBC00101EB00126068F0
:102C700064218000B2FBF0F3B3FBF1F36FF01806B0
:102C80007343B2FBF0F5B2FBF0F605EB830532239C
:102C900003EB0515B5FBF1F5B6FBF1F605F0F00514
:102CA00005EB0615B2FBF0F6B2FBF0F0B0FBF1F06D
:102CB0006FF01802504306EB800003EB0010B0FBEE
:102CC000F1F0216800F00F002844886070BD00001A
:102CD000003801402DE9F843984617460D46044652
:102CE000089E24E0701C22D0FEF7A6FFA0EB08008F
:102CF000B0421AD8CEB12068C168490717D5802DD7
:102D000015D0402D13D00168C94309070FD40168BD
:102D10000025406800902046FFF758FF08206064B7
:102D200084F840500120BDE8F8830320FBE72068C9
:102D3000006835EA000004D00020B842D2D000205C
:102D4000F1E70120F9E7FEE7490050EAC12018BF8A
:102D500004204A0D18BF40F0010040F2FF72B2EBB0
:102D6000515F08BF40F00200012808BF05207047EE
:102D70000907090E002804DB00F1E02080F80014A8
:102D8000704700F00F0000F1E02080F8141D70473C
:102D900030380A2801D20120704700207047000017
:102DA0009CB0FEF757FFFFF791FEFFF75FFDFFF7BF
:102DB00021FD224820490C2201604FF4E13141609D
:102DC00000218160C160C0E904128161C161FFF727
:102DD00054FC08B172B6FEE71C2219496846FDF79B
:102DE0004BFB0021684600F041F8164C14491C22A8
:102DF000A0601C3107A8FDF73FFB002107A800F0E9
:102E000035F80F49E0601C2238310EA8FDF734FB7D
:102E100000210EA800F02AF8094920611C22543133
:102E200015A8FDF729FB002115A800F01FF8606127
:102E300000F017F8FEE7000000440040C00000204A
:102E4000FC3E00080000002001460020842900D03C
:102E5000C81C704710B500B9012000F01FFB00200E
:102E600010BD10B500F040FB002010BD7FB50D4631
:102E700004464169B0F9080081B1A16971B1FFF759
:102E8000E3FFD4E905128DE80700D4E900102B46D2
:102E9000226900F016FC039004B070BDFFF7D4FF68
:102EA00003A9CDE90001208A2B4682B2D4E90010A3
:102EB00000F0DAFB012801D00020EDE70398EBE7F2
:102EC0002DE9F041184C0F460546E6682068001DC4
:102ED00000F01CFA38B9206890F82C1001208840C6
:102EE000216981432161681C07D137B12168BDE8A0
:102EF000F0410E48091D00F04DBA20683544B54236
:102F00004560216805D2A06BBDE8F041091D00F0C5
:102F100029BA606B091D00F025FAA06A854200D22B
:102F2000A562BDE8F0810000280000208004002098
:102F30002DE9F041054600F039FA2E4CA068401CFE
:102F4000A06020682C4F10B1606940B32DE025606F
:102F5000A068012829D1002606EB860007EB800037
:102F600000F0F2F9761C072EF6D323488C3000F0DF
:102F7000EBF92148A03000F0E7F91F48B43000F029
:102F8000E3F91D48C83000F0DFF91B48DC3000F0E1
:102F9000DBF919488C3060631430A06305E02068C9
:102FA000E96AC06A884200D82560606A401C606295
:102FB000E96A0120226988401043206101EB810009
:102FC00007EB8000291D00F0E5F900F00FFA6069B9
:102FD00000280CD02068E96AC06A884207D20749F5
:102FE0004FF080500860BFF34F8FBFF36F8FBDE885
:102FF000F081000028000020A403002004ED00E080
:1030000010B5044690F8510058B101280CD00228A0
:103010000FD0502080F31188BFF34F8FBFF36F8F15
:10302000FEE7206B00F0F6F92046BDE8104000F006
:10303000F1B910BD10484FF44061420706D0C01DE1
:103040000D4920F00700411AC1F540610B4A0023E9
:103050000144C2E900030839183A21F00701116060
:103060004B600B600B1AC0E9001393604FF00040F7
:103070005360506170470000940400207C000020E1
:10308000144E154CA6F1C8074FF08058DFF84C904D
:1030900012E000BF00F08AF9F068C568281D00F052
:1030A00035F9A068401EA0606068401E606000F0B6
:1030B0009DF92846FFF7A4FF60680028EAD1386828
:1030C0000128F9D9C9F80080BFF34F8FBFF36F8F84
:1030D000F2E700006C0400202800002004ED00E06E
:1030E0002DE9F0479A46DDE9098481466FF0030334
:1030F000206B03EB82021044089E20F0070778073C
:1031000007D0502080F31188BFF34F8FBFF36F8F2C
:10311000FEE7002561B1002023180A5C83F8342003
:103120000A5C12B1401C1028F6D384F8435001E029
:1031300084F83450072E00D30626E662C4E91165F0
:10314000201D00F00CF904F1180000F008F92461CA
:10315000C6F107006462A061E56484F850505246ED
:103160004946384600F0C0F82060B8F1000F01D0A1
:10317000C8F80040BDE8F08730B5114900E01146BD
:103180000A688242FBD34B685C18844203D14068D2
:1031900018444860084643681C18944209D1084CFA
:1031A000183C2468A24209D052681A4442600A6856
:1031B00012680260814200D0086030BD0460F9E707
:1031C0007C0000200648416B096829B1416BC96841
:1031D000C9684968816270474FF0FF31FAE7000023
:1031E0002800002008484068401C4FF0500080F341
:1031F000118804D0BFF34F8FBFF36F8FFEE7BFF38B
:103200004F8FBFF36F8FFEE7840000202DE9F04160
:103210000546002700F09EF9324E306808B9FFF7E6
:1032200009FF706905424ED1C5B3083568070ED055
:1032300005F00700C0F108000544680707D05020DA
:1032400080F31188BFF34F8FBFF36F8FFEE72DB36D
:103250007068854237D82348183001460C6801E071
:1032600020460C466168A94202D221680029F7D1A4
:1032700031688C4227D00768216801606068083790
:10328000411B10290FD96019420708D0502080F344
:103290001188BFF34F8FBFF36F8FFEE713E04160DC
:1032A0006560FFF769FF61687068401A7060B26816
:1032B000904200D2B060706901430020C4E900016F
:1032C000F068401CF06000F08DFA780707D05020BD
:1032D00080F31188BFF34F8FBFF36F8FFEE738463F
:1032E000BDE8F0816400002010B5031F4FF080742A
:1032F0001C601B1F21F001011960191F024B0B609C
:10330000143940380A6010BDE5310008D0E90132B7
:1033100001699A60D0E901235A604A68824201D16A
:1033200082684A60002202610868401E08600868DE
:1033300070470000034B036003F1540008608020D5
:10334000106070470801002000F108014FF0FF32C3
:10335000C0E90112C16001610021016070470021D4
:103360000161704730B50B685A1C02D000F10802A9
:1033700002E0026904E02246546825689D42FAD9B9
:1033800053684B6099608A60516008610168491C0C
:10339000016030BD42684A6093688B6093685960F1
:1033A000916008610168491C01607047502080F3FA
:1033B0001188BFF34F8FBFF36F8F0A494868401CD5
:1033C000486001280CD10848006810F0FF0F07D0B2
:1033D000502080F31188BFF34F8FBFF36F8FFEE74C
:1033E000704700008400002004ED00E008494868B0
:1033F00028B1401E486001D180F3118870475020E9
:1034000080F31188BFF34F8FBFF36F8FFEE700008B
:103410008400002070B500282AD0164DA0F10804C1
:1034200060686969084207D1502080F31188BFF3B2
:103430004F8FBFF36F8FFEE722683AB1502080F3C1
:103440001188BFF34F8FBFF36F8FFEE78843606033
:1034500000F080F860686968084468602046FFF7FB
:103460008BFE2869401C2861BDE8704000F0BAB9A5
:1034700070BD0000640000204FF0E02000210161D9
:10348000816105494FF47A720968B1FBF2F1491E76
:1034900041610721016170472400002010B502003E
:1034A00014D00F48006B38B1502080F31188BFF35F
:1034B0004F8FBFF36F8FFEE700F04CF800211046EE
:1034C000FFF7FEFC00F08EF9002807D105494FF008
:1034D00080500860BFF34F8FBFF36F8F10BD0000A7
:1034E0002800002004ED00E010B586B0002403940D
:1034F00005AA04A903A80494FFF71CFFDDE9030152
:103500000094CDE9011000230EA11048059A00F0A7
:10351000D8F80F490028C86211D0502080F31188D4
:10352000BFF34F8FBFF36F8F4FF0FF3088620120E2
:103530004861CC6006B0BDE8104000F041B806B06C
:1035400010BD000049444C450000000081300008D7
:10355000280000200248016B491C016370470000ED
:10356000280000201448016B11B10121C16170478E
:103570000021C1610169B1FA81F1C1F11F0101EBC3
:1035800081020E4951F822306BB101EB820101F149
:1035900008034A6852684A609A4201D152684A60F8
:1035A000D16801607047502080F31188BFF34F8FBE
:1035B000BFF36F8FFEE7000028000020A403002067
:1035C0001CB5264908780190FF20087008788DF80E
:1035D00000009DF800009DF8002000F0F0009042EF
:1035E00007D0502080F31188BFF34F8FBFF36F8F48
:1035F000FEE79DF800001A4C00F0500020700720F4
:10360000A06005E09DF8002052008DF80020401ECB
:103610009DF800201206F5D4A060032807D05020A2
:1036200080F31188BFF34F8FBFF36F8FFEE74FF426
:103630004070A060019808700A48016841F4700168
:103640000160016841F070410160FFF715FF002043
:103650006060FCF7BBFD00201CBD000000E400E042
:103660008400002020ED00E02DE9FF5F8346DDE9C6
:103670000E87994616468A469000FFF7C7FD05005B
:103680001CD05420FFF7C2FD040014D00020256395
:1036900084F85100CDE90240CDE900874B4632461F
:1036A00051465846FFF71CFD2046FFF741FC01201C
:1036B00004B0BDE8F09F2846FFF7ACFE4FF0FF30A6
:1036C000F6E7F0B585B0DDE90B640A9DA6B1DCB183
:1036D000542700972663022684F85160002604AF21
:1036E000CDE90246CDE90057FFF7FAFC2046FFF787
:1036F0001FFC049805B0F0BD502080F31188BFF383
:103700004F8FBFF36F8FFEE7502080F31188BFF318
:103710004F8FBFF36F8FFEE72DE9F0412F4C00264E
:10372000206B28B1A069401CA0613046BDE8F08143
:10373000E5686D1CE56013D1606B006838B15020FE
:1037400080F31188BFF34F8FBFF36F8FFEE7606B7D
:10375000A16B6163A063206A401C2062FFF732FD09
:10376000A06ADFF87C80854209D3606B0068A0B155
:10377000606BC068C7687868854211D2A062206813
:10378000C06A00EB800158F82100012800D9012609
:10379000E0690028C9D00126C7E74FF0FF30EDE708
:1037A000381DFFF7B3FDB86A18B107F11800FFF72D
:1037B000ADFDF96A0120226988401043206101EBC8
:1037C000810108EB8100391DFFF7E4FDF86A2168EB
:1037D000C96A8842C9D30126C7E700002800002033
:1037E000A40300202DE9F0472C4D00242746286B28
:1037F00038B1FFF7DBFD286B401E2863286B40B112
:1038000046E0502080F31188BFF34F8FBFF36F8FD6
:10381000FEE7A968224E0120D1B3A6F1B409804683
:103820003068E8B1F068C46804F11800FFF76EFD75
:10383000201DFFF76BFDE06A2A6908FA00F11143C9
:10384000296100EB800109EB8100211DFFF7A2FD3A
:10385000E06A2968C96A8842E2D3C5F81C80DFE7BC
:103860000CB1FFF7AFFCAC6944B14646FFF754FF1B
:1038700000B1EE61641EF9D10020A861E86938B199
:103880000849012738070860BFF34F8FBFF36F8FD8
:10389000FFF7ACFD3846BDE8F087000028000020A7
:1038A0005804002004ED00E010B500290AD0087883
:1038B000002807D005487844FDF7F0F9002801D02A
:1038C000002010BD0248784410BD0000CA07000067
:1038D000C207000021F00042A2F16052B2F5801F41
:1038E00001F0004328BFD2F17F6C0BD95FEA001CC6
:1038F00043EAC20242EB507018BF704728BF20F065
:1039000001007047B2F5801FBCBF184670474FEAF0
:10391000410C1CF5001F02D2084600F0E8BA70B551
:1039200000F020FA00000089FFF7F6BF4FF00040DA
:10393000A0F58000704700002DE9C04130B4DFF8E9
:10394000A0C23CEA111418BF3CEA131400F0EC804A
:1039500081EA03051CEA111444EAD57418BF1CEA75
:10396000131500F0C780A4EB05044FF0004545EAAD
:10397000C12145EAC32341EA505143EA525304F1BD
:103980007F74994204F500344FEAC0204FEAC22206
:1039900008BF904200F09C804FEA13650FF240167A
:1039A000765D4FEA134506FB05F7C7F1807706FB06
:1039B00007F74FEAD737A7FB03687642C8F5803888
:1039C000A7FB06CE38BFA8F1010807FB08E64FF0B9
:1039D000000EA6FB028CE6FB03CEDCF1000CCEF160
:1039E000004E38BFAEF1010EA6FB0C584FF0000799
:1039F0004FF00005E6FB0E87A1FB08C6A0FB07CE33
:103A000016EB0E0645F10005E1FB076515F1E04EEA
:103A10007EBFA4F580345FEA46066D4116F180074B
:103A200045F100054FEA17274FEA066647EA0567A2
:103A3000A6F1DE46B6F1805F4FEA15251FD938465C
:103A400024F0010C05EBC471BCF1FE6F01EB0C110D
:103A500002D8F0BCBDE8008124425CBF01F5801EA5
:103A60009EEAC47F02D4F0BCBDE80081244238D471
:103A7000F0BCA1F1C041BDE8004100F0C1B94FEA7E
:103A8000D22242EA43524FEAD323A7FB02864FEAEF
:103A9000D02040EA415007FB03661EEA0E0F4FEAB2
:103AA000D12105FB026658BFA6EB0056B6EB0056C7
:103AB0004FEA520E4EEAC37E18EB0E0E56EB530E33
:103AC000BDD518EB02085E417F1C55F10005B6E735
:103AD0004FF480154FF000074FF000064FF000083C
:103AE000ADE7F0BC4FF0000001F1C04101F0004132
:103AF000BDE8008111EA0C1F0CEA131500D00CE0A0
:103B000013EA0C1F00F025804FF00000F0BC81EAA2
:103B1000030101F00041BDE80081F0BCBDE80041B7
:103B200081EA030100F06CB9F0BCBDE8004170B55A
:103B300000F018F9097EFC3E00F007B881EA0301A5
:103B40004FF0000001F00041704781EA030100F0EE
:103B500057B9F0BCBDE800414FF000002149704763
:103B6000FFFDFBF9F7F5F4F2F0EEEDEBE9E8E6E442
:103B7000E3E1E0DEDDDBDAD8D7D5D4D3D1D0CFCDC9
:103B8000CCCBCAC8C7C6C5C4C2C1C0BFBEBDBCBB02
:103B9000BAB9B8B7B6B5B4B3B2B1B0AFAEADACABFD
:103BA000AAA9A8A8A7A6A5A4A3A3A2A1A09F9F9ED7
:103BB0009D9C9C9B9A999998979796959594939389
:103BC000929191908F8F8E8E8D8C8C8B8B8A898920
:103BD00088888787868585848483838282818180A3
:103BE0000000FF070000F87FB0FA80F310FA03F13D
:103BF0000AD0C3F11D0303F580634FEA41504FEA39
:103C0000035202EBD12170474FF0000070470000D3
:103C1000DFF848C170B51CEA111E1EBF1CEA13155F
:103C20009EEA0C0F95EA0C0F00F06F8081EA030406
:103C300023EA4C134EEAD47E21EA4C1141F4801160
:103C400043F48013AE44A1FB024CA0FB0365AEF12C
:103C50007F7E361955EB0C05A1FB034C4CF100039C
:103C6000A0FB021C16EB0C06654153F10003094250
:103C700018BF46F0010613F4007F0BD14FEA033161
:103C80004FEA0530340341EA155140EA16506FF00F
:103C900003020AE04FEAC3214FEAC520F40241EAD9
:103CA000555140EA56506FF0020202EB2E4201EBF2
:103CB000025585EACE710AD05FEA440C18BF24F0A1
:103CC000004450F1000041F1000120EAD47040F2BC
:103CD000FE7C624500D270BDA84214BF4FF0804404
:103CE0004FF04044002E08BF0024BEF1806FA8BFF3
:103CF000A1F1C041BDE8704080F282804FF0000029
:103D000001F1C04101F0004170479EEA0C0F0CEA3E
:103D1000131518BF95EA0C0F06D04FF0000081EA8A
:103D2000030E0EF0004170BD00F01CF88900013E4A
:103D300000F007B800F009B84FEA430C5FEA5C5C9A
:103D400008D081EA030100F05BB84FEA410C5FEA5A
:103D50005C5CF6D14FF00000014970470000FF079E
:103D60000000F87F0EF1020E2EF0030E5EF8046BD9
:103D7000364205D4012A43EB030515F5001F12D87E
:103D8000012841EB010C1CF5001F0CD80ED14FEAA5
:103D9000D17C15F5001F0CEB4C0C0CF1020C08BF8C
:103DA0004CEBD37C04E04FF0080C01E04FEAD37CED
:103DB0000CEB4C0526FA05F606F00706B6F1040CE6
:103DC00006D20EEB860CBDE870404CF0010C60474B
:103DD000DFE80CF0090B02024FF000414FF0000049
:103DE000A1F5002170BD19461046012851EB0104D0
:103DF00018BFD4F5001484BF002001F0004170BD4D
:103E00000808A0F500114FEA3101704743004FEA5E
:103E1000D30C4FEA3C0C43401FBF40070CF16051EC
:103E200013F0FE4F70471CF0006F03D100200CF020
:103E3000004170470CF0004343EA507010B540EA6F
:103E4000CC0000F00EF800BF000000924FEA000125
:103E5000FFF7D6BF4FF000414FF00000A1F5002161
:103E600070470EF1020E2EF0030E5EF8044B244252
:103E700004D44FEA4102B2F17F4F11D84FEA400318
:103E8000B3F17F4F0CD80ED14FEAD07CB2F17F4F07
:103E90000CEB4C0C0CF1020C08BF4CEBD17C04E099
:103EA0004FF0080C01E04FEAD17C0CEB4C0324FAF4
:103EB00003F404F00704B4F1040C06D20EEB840CF6
:103EC000BDE810404CF0010C6047DFE80CF007083B
:103ED00002024FF00040A0F5800010BD08464200ED
:103EE00018BFD2F1807288BF00F0004010BDFF21E2
:103EF00041EAD050C0057047FCF74ABC5440000866
:103F000029290008000000000000000080000000D7
:103F100000000000000000003C400008112A0008DA
:103F20000000000000000000800000000000000011
:103F30000000000044400008C12900080000000003
:103F400000000000800000000000000000000000F1
:103F50004C4000085D29000800000000000000003F
:103F600080000000000000000000000001020203C9
:103F70000405060708090A0B0C0D0E0F10100102AC
:103F800002030405060708090A0B0C0D0E0F10109A
:103F900000000000000000000102030406070809F9
:103FA000000000000102030402400000000000A025
:103FB0000000000005400000000000C800000000F4
:103FC0000C4000000000409C000000001940000070
:103FD0000020BCBE0000000034400000BFC91B8EA2
:103FE00000000004B5400000504BCFD06607E2CF80
:103FF000010000006C4100003E8251AADFEEA734B0
:1040000001000000D9420000DCB5A0E23A301F9761
:10401000FFFFFFFFB4450000FD25A0C8E9A3C14F85
:10402000FFFFFFFFFF3F00000000008000000000D6
:10403000FF3F000000000080000000007461736B0F
:10404000320000007461736B330000007461736BA5
:104050003034000064656661756C745461736B0084
:104060009C4000080000002090000000280100088B
:104070002C41000890000020681600004401000850
:104080001C00000043000000F8FFFFFF0C000000D0
:104090000E0000000F0000002E00000000000000D5
:1040A0000000000000000000000000000000000010
:1040B00000000000010000001000000000000000EF
:1040C00000127A0000000000000000000000000064
:1040D00000000000000000000000000000000000E0
:1040E00000000000000000000000000000000000D0
:1040F00000000000000000000000000000000000C0
:1041000000000000000000000000000000000000AF
:10411000000000000000000000000000000000009F
:0C41200000000000AAAAAAAA00000000EB
:04000005080000ED02
:00000001FF
